:020000040800F2
:1000000000800120851C00083F0200084D02000806
:1000100053020008590200085F02000800000000B7
:100020000000000000000000000000006502000861
:100030007302000800000000810200088F0200081F
:10004000CD1C0008CD1C0008CD1C0008CD1C0008EC
:10005000CD1C0008CD1C0008CD1C0008CD1C0008DC
:10006000CD1C0008CD1C0008CD1C0008CD1C0008CC
:10007000CD1C0008CD1C0008CD1C0008CD1C0008BC
:10008000CD1C0008CD1C0008CD1C0008CD1C0008AC
:10009000CD1C0008CD1C0008CD1C0008CD1C00089C
:1000A000CD1C0008CD1C0008CD1C0008CD1C00088C
:1000B000CD1C0008CD1C0008CD1C0008CD1C00087C
:1000C000CD1C0008CD1C0008CD1C0008CD1C00086C
:1000D000CD1C0008CD1C0008CD1C0008CD1C00085C
:1000E000CD1C0008CD1C0008CD1C0008CD1C00084C
:1000F000CD1C0008CD1C0008CD1C0008CD1C00083C
:10010000CD1C0008CD1C0008CD1C0008CD1C00082B
:10011000CD1C0008CD1C0008CD1C0008CD1C00081B
:10012000CD1C0008CD1C0008CD1C0008CD1C00080B
:10013000CD1C0008CD1C0008CD1C0008CD1C0008FB
:1001400000000000000000000000000000000000AF
:10015000CD1C0008CD1C0008CD1C0008CD1C0008DB
:10016000CD1C0008CD1C0008CD1C0008CD1C0008CB
:10017000CD1C0008CD1C0008CD1C0008CD1C0008BB
:04018000CD1C00088A
:1001840010B5054C237833B9044B13B10448AFF3CD
:1001940000800123237010BD6C00002000000000CB
:1001A400A421000808B5034B1BB103490348AFF36E
:1001B400008008BD0000000070000020A421000899
:1001C40080B500AF00F082FE0121012000F040FF65
:1001D40000BF00F0D9FE0346002BFAD001223B21D8
:1001E400022000F0CBFF002001F040F901210220A1
:1001F40000F02EFF00BF192000F09EFE0346012BE5
:10020400F9D1002000F078FF042000F0A1FF0420C1
:1002140000F088FF012001F00DF9022000F0FCFF3E
:1002240000BF01F00FF80346022BFAD1002001F0C1
:1002340001F901F08FFD00BF80BD80B400AF00BFA5
:10024400BD465DF8047B704780B400AFFEE780B420
:1002540000AFFEE780B400AFFEE780B400AFFEE776
:1002640080B400AF00BFBD465DF8047B704780B426
:1002740000AF00BFBD465DF8047B704780B400AF9B
:1002840000BFBD465DF8047B704780B400AF00BF7B
:10029400BD465DF8047B704780B500AF164B174A26
:1002A4001A60174B174A1A60FFF78AFF01F0FAFD2C
:1002B400154800F0D5FF002001F064FE012001F094
:1002C40061FE022001F05EFE0D4B1B689B6898479F
:1002D4000E4B4FF4FC621A80094B1B685B690B4A96
:1002E400128810469847044B1B681B689847024BBA
:1002F4001B689B689847FAE7A800002000000020CC
:10030400B00000202C0000208C000020A000002061
:1003140080B584B000AF07F1080300221A605A6068
:100324000121434800F055FE0121424800F051FEEE
:1003340001214FF4C01000F04CFE01213E4800F0B2
:1003440048FE01213D4801F096F92823BB600823AB
:10035400BB7300233B7304237B730123FB7307F1FB
:1003640008031946364801F097F84FF48073BB60D0
:100374001023BB7300233B7304237B730123FB73A0
:1003840007F1080319462E4801F086F808212C4885
:1003940001F053F920212A4801F04FF94FF48071FC
:1003A400274801F04AF91023BB600023BB730023E4
:1003B4003B7304237B730123FB7307F10803194682
:1003C4001F4801F069F82023BB600023BB7300239E
:1003D4003B7318237B730123FB7307F1080319464E
:1003E400184801F059F82021164801F026F93B4637
:1003F400184601F0ABF900233B7001237B700723FF
:10040400BB700023FB7000233B7101237B7101232C
:10041400BB710123FB713B4619460B4801F0B8F947
:100424000121094801F085FA00BF1037BD4680BD9F
:1004340003001800050018000F001C000203103010
:10044400000C014000140140003C004080B584B021
:1004540000AF786039600C4B1B78184600F018F830
:100464000346FB81094B1B78184600F011F803463C
:10047400BB817B68FA891A803B68BA891A8000BFFD
:100484001037BD4680BD00BF280000202900002091
:1004940090B589B000AF0346FB7100237B83002332
:1004A400FB830EE0FC8BFB79184600F06BF80346E7
:1004B4001A46630020333B4423F8142CFB8B01338E
:1004C400FB83FB8B042BEDD90023FB8335E0FB8BF3
:1004D4000133BB832BE0FB8B5B0020333B4433F8BD
:1004E400142CBB8B5B0020333B4433F8143C9A42FE
:1004F4001AD9FB8B5B0020333B4433F8143C3B8319
:10050400BB8BFA8B5B0020333B4433F8141C530041
:1005140020333B440A4623F8142CBB8B5B00203366
:100524003B443A8B23F8142CBB8B0133BB83BB8B2A
:10053400042BD0D9FB8B0133FB83FB8B032BC6D954
:1005440000237B830123FB830BE0FB8B5B002033C5
:100554003B4433F8142C7B8B13447B83FB8B013398
:10056400FB83FB8B032BF0D97B8B054AA2FB032374
:100574005B083B833B8B18462437BD4690BD00BFC8
:10058400ABAAAAAA80B584B000AF0346FB710023CE
:10059400FB814FF48071124801F05EF8FB79184634
:1005A40000F020F8062001F055FD00F03FF8034666
:1005B400FB81FB891B02FB8100F038F803469AB2E9
:1005C400FB891343FB81FB89DB08FB814FF48071BA
:1005D400034801F032F8FB8918461037BD4680BD48
:1005E400000C014080B582B000AF0346FB7100BF30
:1005F40002210D4801F0CEF90346002BF8D0FB7917
:100604009BB21946084801F0A9F900BF0121064828
:1006140001F0C0F90346002BF8D0034BDB6800BFA0
:100624000837BD4680BD00BF003C004080B582B0A5
:1006340000AF00BF02210E4801F0ACF90346002BC5
:10064400F8D0FF210A4801F089F900BF01210848C8
:1006540001F0A0F90346002BF8D0054801F08DF90C
:100664000346FB71FB7918460837BD4680BD00BFC1
:10067400003C004080B582B000AF20212B4800F040
:10068400C1FF0346002B4CD1294B5B6829492A48FA
:100694009847274B5B8A1A4613461B019B1A1B017A
:1006A400264A82FB03121A44D212DB17D31AFB80A8
:1006B4001F4BDB8B1A4613469B0013449B01204AB5
:1006C40082FB03129212DB17D31ABB80B988FB8812
:1006D4004FF47842184600F0B9FBFB88013B9BB20B
:1006E400B9884FF47842184600F0B0FBFB88013318
:1006F4009BB2B9884FF47842184600F0A7FBBB8838
:10070400013399B2FB884FF47842184600F09EFBFF
:10071400BB88013B99B2FB884FF47842184600F03D
:1007240095FB00BF0837BD4680BD00BF00140140E3
:10073400000000201E0000201200002071F8428AF0
:10074400B71A3C4780B400AF01231846BD465DF894
:10075400047B704780B598B000AF07F158030022BE
:100764001A605A600121A64800F033FC0121A54813
:1007740000F02FFC0121A44800F02BFC0121A34828
:1007840000F027FC0121A24800F023FC01214FF4D2
:10079400C01000F01EFC01219E4800F01AFC01214B
:1007A4009D4800F068FF3C23BB65082387F85E3052
:1007B400002387F85C30042387F85D30012387F831
:1007C4005F3007F158031946944800F065FE4FF472
:1007D400A043BB65082387F85E30002387F85C30AC
:1007E400042387F85D30012387F85F3007F158034D
:1007F40019468B4800F050FE4FF4C253BB650823E2
:1008040087F85E30002387F85C30042387F85D3076
:10081400012387F85F3007F158031946814800F037
:100824003BFE4FF47843BB65082387F85E30002312
:1008340087F85C30042387F85D30012387F85F3044
:1008440007F158031946784800F026FE4FF4C063B8
:10085400BB65082387F85E30002387F85C300423E7
:1008640087F85D30012387F85F3007F15803194694
:100874006E4800F011FE0123BB65102387F85E303B
:10088400002387F85C30042387F85D30012387F860
:100894005F3007F158031946614800F0FDFD082355
:1008A400BB65102387F85E30002387F85C3004238F
:1008B40087F85D30012387F85F3007F15803194644
:1008C4005A4800F0E9FD2023BB65082387F85E3011
:1008D400002387F85C30042387F85D30012387F810
:1008E4005F3007F1580319464E4800F0D5FD40F635
:1008F4008403BB65082387F85E30002387F85C30E7
:10090400042387F85D30012387F85F3007F158032B
:100914001946464800F0C0FD07F14003184601F0AF
:10092400F4F8002387F84030002387F8413000238F
:1009340087F84230102387F843300023A7F8443067
:100944000023A7F846300023A7F848300023A7F86F
:100954004A300023A7F84C304FF48053A7F84E30A8
:100964000023A7F850304FF48043A7F852300023F7
:100974007B6507F14003184601F025F83A4607F174
:1009840020031146184601F0F3F8002387F82030BD
:100994004FF480437B8402237B620023BB620223E7
:1009A400FB6200233B6300237B630023BB630023C0
:1009B400FB6300233B704FF480437B8002237B6006
:1009C4000023BB600223FB6000233B6100237B61A7
:1009D4000023BB610023FB613A4607F12003114663
:1009E400184601F035F808220821002001F01CF90E
:1009F4000121002001F0FDF800BF6037BD4680BD35
:100A04000200180003001800040018000500180074
:100A14000600180008001400010318300008014003
:100A2400000C014000100140001801400014014076
:100A340098B500AFC14B1B685B6898470821C04854
:100A440000F0FBFD322001F03BFB002000F07CF9BC
:100A5400052001F035FBB94B1C6800F095F90346FD
:100A64002380D32000F070F9B44B1C6800F08CF99B
:100A740003462380B14B1C6800F086F903462380AB
:100A8400AE4B1C6800F080F903462380AB4B1C6816
:100A940000F07AF903462380A84B1B681A88A74BF9
:100AA4001B68120292B21A8000F06EF903461946CE
:100AB400A24B1B681A88A14B1B680A4392B21A8086
:100AC400CF2000F041F9002000F04EF9C12000F0E1
:100AD4004BF9302000F048F9ED2000F035F964209E
:100AE40000F042F9032000F03FF9122000F03CF935
:100AF400812000F039F9E82000F026F9852000F083
:100B040033F9102000F030F97A2000F02DF9CB20D1
:100B140000F01AF9392000F027F92C2000F024F90C
:100B2400002000F021F9342000F01EF9022000F02A
:100B34001BF9F72000F008F9202000F015F9EA204D
:100B440000F002F9002000F00FF9002000F00CF989
:100B5400C02000F0F9F81B2000F006F9C12000F0D5
:100B6400F3F8012000F000F9C52000F0EDF8302082
:100B740000F0FAF8302000F0F7F8C72000F0E4F8AD
:100B8400B72000F0F1F8362000F0DEF8482000F03D
:100B9400EBF83A2000F0D8F8552000F0E5F8B12041
:100BA40000F0D2F8002000F0DFF81A2000F0DCF8A2
:100BB400B62000F0C9F80A2000F0D6F8A22000F010
:100BC400D3F8F22000F0C0F8002000F0CDF8262081
:100BD40000F0BAF8012000F0C7F8E02000F0B4F803
:100BE4000F2000F0C1F82A2000F0BEF8282000F001
:100BF400BBF8082000F0B8F80E2000F0B5F8082083
:100C040000F0B2F8542000F0AFF8A92000F0ACF8DE
:100C1400432000F0A9F80A2000F0A6F80F2000F005
:100C2400A3F8002000F0A0F8002000F09DF80020B8
:100C340000F09AF8002000F097F8E12000F084F822
:100C4400002000F091F8152000F08EF8172000F035
:100C54008BF8072000F088F8112000F085F80620B2
:100C640000F082F82B2000F07FF8562000F07CF88A
:100C74003C2000F079F8052000F076F8102000F010
:100C840073F80F2000F070F83F2000F06DF83F205B
:100C940000F06AF80F2000F067F82B2000F054F8F9
:100CA400002000F061F8002000F05EF8012000F060
:100CB4005BF83F2000F058F82A2000F045F80020A7
:100CC40000F052F8002000F04FF8002000F04CF83B
:100CD400EF2000F049F8112000F036F8782001F0F8
:100CE400EFF9292000F030F8362000F02DF8082024
:100CF40000F03AF82A2000F027F8002000F034F839
:100D0400002000F031F8002000F02EF8EF2000F071
:100D14002BF82B2000F018F8002000F025F8002014
:100D240000F022F8012000F01FF83F2000F01CF82A
:100D34000121044800F081FC00BF98BDB0000020F0
:100D440000140140000C014080B483B000AF03469E
:100D5400FB80044AFB88138000BF0C37BD465DF856
:100D6400047B7047FEFF016080B483B000AF03468C
:100D7400FB80044AFB88138000BF0C37BD465DF836
:100D8400047B70470000026080B483B000AF054B61
:100D94001B88FB80FB8818460C37BD465DF8047B36
:100DA400704700BF0000026090B583B000AF0446F6
:100DB400084611461A462346FB800346BB800B4671
:100DC4007B8013463B802A20FFF7BEFFFB881B0A6B
:100DD4009BB21846FFF7C8FFFB881846FFF7C4FF0D
:100DE4007B881B0A9BB21846FFF7BEFF7B88184618
:100DF400FFF7BAFF2B20FFF7A7FFBB881B0A9BB2A4
:100E04001846FFF7B1FFBB881846FFF7ADFF3B88D4
:100E14001B0A9BB21846FFF7A7FF3B881846FFF74B
:100E2400A3FF2C20FFF790FF00BF0C37BD4690BDF9
:100E340080B582B000AF0346FB80FB881846FFF7FD
:100E440093FF00BF0837BD4680BD000090B583B056
:100E540000AF0346FB800B46BB8013467B80084BE8
:100E64001B68DC68BB88FA88B988F888A0477B8847
:100E74001846FFF7DDFF00BF0C37BD4690BD00BF2D
:100E8400B000002090B585B000AF0346FB800E4B48
:100E94001B68DC684FF4A073F02200210020A047F7
:100EA4000023FB6006E0FB881846FFF7C1FFFB68E0
:100EB4000133FB60FB68B3F5963FF4D300BF00BF7A
:100EC4001437BD4690BD00BFB000002080B400AF11
:100ED400184A136843F00103136000BF154B1B68E5
:100EE400C3F34003DBB2012BF8D1124A53686FF30A
:100EF4000103536000BF0F4B5B68C3F38103DBB294
:100F0400002BF8D10B4B1B680A4A23F0867323F499
:100F140080331360074B00225A60064B00221A6389
:100F2400044B4FF41F029A6000BFBD465DF8047B7A
:100F3400704700BF0010024080B485B000AF7860F5
:100F44000023FB737B681B0C03F1804303F504331C
:100F54001A687B6803F01F03012101FA03F31A40A6
:100F64007B6803F01F03012101FA03F39A4202D0C4
:100F74000023FB7301E00123FB73FB7B184614374A
:100F8400BD465DF8047B704780B582B000AF002396
:100F94007B600023FB7002E07B6801337B601120DF
:100FA400FFF7CAFF0346012B03D07B68B3F5405F0C
:100FB400F2D31120FFF7C0FF0346012B02D0002318
:100FC400FB7001E00123FB70FB7818460837BD462F
:100FD40080BD80B483B000AF78600B46FB70FB78B3
:100FE400012B16D17B681B0C03F1804303F50433FA
:100FF40019687B6803F01F0301229A407B681B0C6D
:1010040003F1804303F50433184641EA0203036005
:1010140017E07B681B0C03F1804303F50433196864
:101024007B6803F01F03012202FA03F3DA437B68AF
:101034001B0C03F1804303F50433184601EA020351
:10104400036000BF0C37BD465DF8047B70470000A9
:1010540080B483B000AF03460A46FB711346BB71EC
:10106400FB79042B3ED801A252F823F08510000826
:1010740099100008AD100008C1100008D510000830
:101084001C4ABB7903F00103D9B2136861F300036E
:10109400136028E0174ABB7903F00103D9B213683F
:1010A40061F3104313601EE0124ABB7903F001039D
:1010B400D9B2136861F31863136014E00D4ABB7965
:1010C40003F00103D9B2136A61F3000313620AE067
:1010D400084ABB7903F00103D9B2536A61F30003F0
:1010E400536200E000BF00BF0C37BD465DF8047BCF
:1010F400704700BF0010024080B483B000AF0346C5
:10110400FB71074AFB7903F00F03D9B2536861F30B
:101114000713536000BF0C37BD465DF8047B70476E
:101124000010024080B483B000AF0346FB71074A4D
:10113400FB7903F00703D9B2536861F30A235360C0
:1011440000BF0C37BD465DF8047B704700100240B9
:1011540080B483B000AF0346FB71074AFB7903F008
:101164000703D9B2536861F3CD23536000BF0C3732
:10117400BD465DF8047B70470010024080B483B024
:1011840000AF0346FB710B46BB7113467B71FB79C1
:10119400002B0AD11F4A53686FF3104353601D4A52
:1011A400136B43F00073136312E01A4A536843F459
:1011B40080335360FB79012B05D1164A53686FF3D2
:1011C4005143536004E0134A536843F400335360BB
:1011D400104ABB7903F00F03D9B2536861F3954306
:1011E4005360BB791B110B4A03F00303D9B2536854
:1011F40061F35E735360074A7B7903F00103D9B24C
:10120400536861F3DF73536000BF0C37BD465DF86C
:10121400047B70470010024080B483B000AF0346E3
:10122400FB71074AFB7903F00303D9B2536861F3F6
:101234000103536000BF0C37BD465DF8047B704763
:101244000010024080B400AF044B5B68C3F3810319
:10125400DBB21846BD465DF8047B704700100240BF
:1012640080B58AB000AF786000233B6200237B62C4
:101274000023FB610023BB6100237B6100233B61EE
:10128400FFF7E0FF0346FB73FB7B022B20D0022B0E
:1012940069DC002B02D0012B16D064E05D4B5B6D42
:1012A400C3F34023DBB2002B0AD05A4B1B6BC3F3AE
:1012B4004063DBB2002B03D07B68574A1A6056E0C8
:1012C4007B68564A1A6052E07B68544A1A604EE0C2
:1012D400504B5B68C3F30043DBB2BB614D4B5B68AF
:1012E400C3F38343DBB27B624A4B5B68C3F3417352
:1012F400DBB2FB61FB69002B02D17B6A0F2B06D1A9
:10130400FB691A017B6A134401337B6202E07B6A46
:1013140002337B62BB69002B06D17B6A404A03FB24
:1013240002F27B681A6022E03A4B5B68C3F34043E5
:10133400DBB2002B10D0374B5B6DC3F30133DBB250
:101344003B623B6A0233354AB2FBF3F37A6A03FB2E
:1013540002F27B681A600AE07B6A304A03FB02F2FD
:101364007B681A6003E07B682C4A1A6000BF294B33
:101374005B68C3F30313DBB27B612A4A7B691344C2
:101384001B783B617B681A683B69DA407B685A606A
:10139400204B5B68C3F30223DBB27B61224A7B6987
:1013A40013441B783B617B685A683B69DA407B686D
:1013B400DA60184B5B68C3F3C223DBB27B611B4A60
:1013C4007B6913441B783B617B685A683B69DA404C
:1013D4007B689A600F4B5B68C3F30073DBB27B617D
:1013E4007B699B000B4A5268C2F38132D2B2134329
:1013F4007B610F4A7B6913441B783B617B689A6865
:101404003B69B2FBF3F27B681A6100BF2837BD4623
:1014140080BD00BF00100240006CDC0200127A00A4
:1014240000093D00BC210008CC210008D42100089B
:10143400DC21000880B483B000AF0346FB71FB7964
:10144400012B05D1084A536D43F03003536504E082
:10145400054A536D6FF30513536500BF0C37BD4642
:101464005DF8047B704700BF0010024080B483B075
:1014740000AF0346FB71074AFB7903F00303D9B2BB
:10148400536D61F30D33536500BF0C37BD465DF8F2
:10149400047B70470010024080B485B000AF7860D0
:1014A40039603B681B683B813B689B79032B02D105
:1014B40000237B8130E03B689B79002B15D13B688E
:1014C4005B799BB203F00F037B813B685B79182B3C
:1014D40003D13A897B681A611EE03B685B79282B4B
:1014E4001AD13A897B685A6116E03B689B791BB232
:1014F40003F008031AB23B681B791BB203F0040320
:101504001BB213431AB23B68DB791BB203F003032B
:101514001BB213431BB27B813B89DBB2002B25D06A
:101524000023FB601FE03A89FB6842FA03F303F0EF
:101534000103002B14D07B681B68FA6892000F210A
:1015440001FA02F2D2431A407B681A607B681B6876
:101554007989FA68920001FA02F21A437B681A60E8
:10156400FB680133FB60FB68072BDCD93B89FF2B4D
:1015740028D93B891B0A3B810023FB601FE03A8981
:10158400FB6842FA03F303F00103002B14D07B68D9
:101594005B68FA6892000F2101FA02F2D2431A4002
:1015A4007B685A607B685B687989FA68920001FA03
:1015B40002F21A437B685A60FB680133FB60FB68E4
:1015C400072BDCD900BF1437BD465DF8047B704798
:1015D40080B483B000AF78607B684FF6FF721A6006
:1015E4007B6800229A717B6800221A717B6804224E
:1015F4005A717B680122DA7100BF0C37BD465DF871
:10160400047B704780B485B000AF78600B467B8064
:101614000023FB737A8879887B689B680B409A4225
:1016240002D00023FB7301E00123FB73FB7B18460C
:101634001437BD465DF8047B704780B483B000AFB7
:1016440078600B467B807A887B681A6100BF0C3710
:10165400BD465DF8047B704780B483B000AF78600A
:101664000B467B807A887B685A6100BF0C37BD4685
:101674005DF8047B704780B487B000AF78600B4698
:10168400FB707B681B0E03F1804303F580337B61A1
:101694007B681B0CFB747B681B0ABB747B687B74C4
:1016A400BB7CC3F12002FB7CD31A4FF0FF3202FA59
:1016B40003F3FB60BB7CC3F12002FB7CD31AFA6802
:1016C40022FA03F3FB60FB7CFA6822FA03F3FB6063
:1016D400FB7CFA6802FA03F3FB607B691968FB6818
:1016E400DA437B690A401A60FB78002B09D07B69D6
:1016F4001A68797CFB7C01FA03F319467B690A4377
:101704001A6000BF1C37BD465DF8047B70470000BB
:1017140080B483B000AF0346FB71FB79042B06D180
:10172400094B1B68084A43F00403136005E0064BA9
:101734001B68054A23F00403136000BF0C37BD4641
:101744005DF8047B704700BF10E000E080B483B014
:1017540000AF78607B6800221A707B6800225A70A0
:101764007B6800229A707B680022DA707B68002212
:101774001A717B6800225A717B6800229A717B6817
:101784000122DA7100BF0C37BD465DF8047B704757
:1017940080B483B000AF786039607A68D3696FF33E
:1017A400CB23D3613B681B78002B0FD17A68136875
:1017B4006FF3CF3313607A6813686FF38E3313605B
:1017C4007A6813686FF38A2313603AE03B681B78E6
:1017D400012B0FD17A6813686FF3CF3313607A68E3
:1017E40013686FF38E3313607A68136843F480636D
:1017F400136026E03B681B78022B0FD17A681368CC
:1018040043F4004313607A6813686FF38E331360F4
:101814007A6813686FF38A23136012E03B681B78BD
:10182400032B0ED17A68136843F4004313607A687B
:10183400136843F4804313607A6813686FF38A2350
:1018440013603B68DB7903F00103D9B27A6813684B
:1018540061F3492313603B685B78012B09D13B6832
:10186400DB79012B05D17A68136843F48073136024
:1018740004E07A6813686FF3082313603B685B78AD
:1018840003F00103D9B27A68136861F38203136029
:101894003B689B78072B0FD97A68536843F48073AD
:1018A40053603B689B7803F00703D9B27A681368E6
:1018B40061F3C50313600EE07A6853686FF308237D
:1018C40053603B689B7803F00703D9B27A681368C6
:1018D40061F3C50313603B68DB7803F00103D9B2FD
:1018E4007A68136861F3C71313603B681B7903F0CC
:1018F4000103D9B27A68136861F3CB2313603B68A0
:101904005B7903F00103D9B27A68136861F3410388
:1019140013603B689B7903F00103D9B27A681368BA
:1019240061F30003136000BF0C37BD465DF8047B10
:10193400704780B483B000AF78600B46FB70FB78CF
:1019440003F00103D9B27A68136861F38613136054
:1019540000BF0C37BD465DF8047B704780B483B08C
:1019640000AF78600B467B807A887B68DA6000BFC2
:101974000C37BD465DF8047B704780B483B000AF7C
:1019840078607B68DB689BB218460C37BD465DF80F
:10199400047B704780B485B000AF78603960002361
:1019A400FB737B689A683B681340002B02D10023C9
:1019B400FB7301E00123FB73FB7B18461437BD4620
:1019C4005DF8047B704780B483B000AF78607B68B7
:1019D4005A787B689B781343DAB27B68DB781343CD
:1019E400DBB21A467B689B8813437A68D288134318
:1019F4007A68128913437A68528913437A68928900
:101A040013437A68D28913437A68128A13437A6833
:101A1400528A1A437B685B694FF0204079680978E1
:101A2400134340F831307B689B78082B0AD14FF080
:101A340020427B681B78194652F8313043F040034A
:101A440042F8313000BF0C37BD465DF8047B704767
:101A540080B483B000AF786039607B685A687B6873
:101A64009B681B011A437B68DB681B021A437B6873
:101A74001B691B041A437B685B691B051A437B685B
:101A84009B691B061A437B68DB694FF02040796829
:101A940009781A43CB0003445A607B685B88B3F52A
:101AA400804F22D13B685A683B689B681B011A43EC
:101AB4003B68DB681B021A433B681B691B041A431F
:101AC4003B685B691B051A433B689B691B061A4309
:101AD4003B68DB694FF02040396809781A4301F10B
:101AE4002003DB0003445A6009E04FF020423B68C6
:101AF4001B782033DB0013446FF070425A6000BF40
:101B04000C37BD465DF8047B704780B483B000AFEA
:101B140078607B6800221A707B6802225A707B68A6
:101B240000229A707B680022DA707B6800229A8017
:101B34007B680022DA807B6800221A817B6800229D
:101B44005A817B6800229A817B684FF48052DA8143
:101B54007B684FF400521A827B6800225A827B68A9
:101B640000225A6100BF0C37BD465DF8047B704704
:101B740080B483B000AF786039607B6800221A704B
:101B84007B6800225A807B680F225A607B680F2290
:101B94009A607B68FF22DA607B680F221A617B6897
:101BA4000F225A617B680F229A617B680022DA61F6
:101BB4003B6800221A703B6800225A803B680F225F
:101BC4005A603B680F229A603B68FF22DA603B68E8
:101BD4000F221A613B680F225A613B680F229A61F7
:101BE4003B680022DA6100BF0C37BD465DF8047B18
:101BF400704780B483B000AF03460A46FB711346B6
:101C0400BB714FF02041FA79BB7903F00103D8B2DC
:101C140051F8323060F3000341F8323000BF0C3722
:101C2400BD465DF8047B704780B483B000AF0346C3
:101C3400FB710B46BB8013467B804FF02041FB7940
:101C4400DBB27A88D0B203F1880251F8223060F313
:101C54000F2341F822304FF02041FB79DBB2BA88E0
:101C6400D0B203F1880251F8223060F3070341F83F
:101C7400223000BF0C37BD465DF8047B704700007E
:101C8400002103E00B4B5B58435004310A480B4BD3
:101C940042189A42F6D30A4A02E0002342F8043B6F
:101CA400084B9A42F9D300F011F800F055FAFEF708
:101CB400F3FA7047FC210008000000206C000020AB
:101CC4006C000020BC000020FEE7000080B400AFE0
:101CD4001E4BD3F888301D4A43F47003C2F8883091
:101CE4001B4A136843F00103136000BF184B1B68C1
:101CF400C3F34003DBB2012BF8D1154A53686FF3E9
:101D04000103536000BF124B5B68C3F38103DBB272
:101D1400002BF8D10E4B1B680D4A23F0867323F475
:101D2400803313600A4B00225A60094B00221A6365
:101D3400074B4FF41F029A60044B4FF000629A6005
:101D440000BFBD465DF8047B704700BF00ED00E0B6
:101D54000010024080B588B000AF0023BB610023AF
:101D6400FB6100237B6100233B610023FB600023B4
:101D7400BB60FFF767FA0346FB71FB79022B20D0A7
:101D8400022B69DC002B02D0012B16D064E03F4B00
:101D94005B6DC3F34023DBB2002B0AD03B4B1B6BC0
:101DA400C3F34063DBB2002B03D0394B394A1A60CA
:101DB40056E0374B384A1A6052E0354B364A1A60BF
:101DC4004EE0324B5B68C3F30043DBB23B612F4B05
:101DD4005B68C3F38343DBB2FB612C4B5B68C3F3E7
:101DE4004173DBB27B617B69002B02D1FB690F2B52
:101DF40006D17B691A01FB6913440133FB6102E0DC
:101E0400FB690233FB613B69002B06D1FB69234A62
:101E140002FB03F31E4A136022E01C4B5B68C3F30E
:101E24004043DBB2002B10D0184B5B6DC3F301337E
:101E3400DBB2BB61BB690233174AB2FBF3F3FA6945
:101E440002FB03F3124A13600AE0FB69124A02FB25
:101E540003F30F4A136003E00D4B0F4A1A6000BFEF
:101E64000A4B5B68C3F30313DBB2FB600C4AFB68E9
:101E740013441B78BB60064B1A68BB6822FA03F351
:101E8400034A136000BF2037BD4680BD00100240E6
:101E940044000020006CDC0200127A0000093D00BE
:101EA400E421000880B500AF00F0B4F8002000F091
:101EB40035F8012000F032F8022000F02FF800205D
:101EC40000F084F8012000F081F8022000F07EF890
:101ED40000F002F800BF80BD80B582B000AF0121E0
:101EE4000C48FFF776F83B461846FFF771FB0123D1
:101EF400FB7100233B710023BB7101233B6028234A
:101F04007B713B4619460448FFF7C6FA00BF083701
:101F1400BD4680BD020018000008014080B584B0B1
:101F240000AF0346FB71FB79134A52F823300121B9
:101F34001846FFF74EF807F108031846FFF748FB69
:101F44000123FB7300233B731023BB73FB790B4A00
:101F540032F81330BB6004237B73FB79084A52F8D0
:101F6400233007F1080211461846FFF795FA00BF1F
:101F74001037BD4680BD00BF5C0000205400002027
:101F84004800002080B483B000AF0346FB71FB79A6
:101F9400022B10D8FB790B4A32F81330002B0BD0EC
:101FA400FB79084A32F81310FB79074A52F82330B8
:101FB4000A465A6100E000BF0C37BD465DF8047B59
:101FC400704700BF540000204800002080B483B054
:101FD40000AF0346FB71FB79022B10D8FB790B4A47
:101FE40032F81330002B0BD0FB79084A32F8131067
:101FF400FB79074A52F823300A461A6100E000BF11
:102004000C37BD465DF8047B704700BF54000020C8
:102014004800002080B500AF0420FFF779FB094B8E
:102024001B68094AA2FB03239B0C084A1360074B55
:102034001B684FF47A7202FB03F3054A136000BF76
:1020440080BD00BF4400002083DE1B43B400002099
:10205400B800002080B485B000AF78600023FB6036
:10206400154B1B6815497A6802FB03F34B60134B4D
:1020740000229A60114B1B68104A43F0010313605D
:102084000E4B1B68FB60FB6803F00103002B04D0BC
:10209400FB6803F48033002BF2D0084B1B68074A1B
:1020A40023F001031360054B00229A6000BF14372C
:1020B400BD465DF8047B7047B400002010E000E0EA
:1020C40080B485B000AF0346FB800023FB6035E09D
:1020D400FB88322B0AD91E4B1B681E4A322101FB96
:1020E40003F35360FB88323BFB8008E0FB88184A0B
:1020F4001268184902FB03F34B600023FB80154B65
:1021040000229A60134B1B68124A43F001031360C8
:10211400104B1B68FB60FB6803F00103002B04D029
:10212400FB6803F48033002BF2D00A4B1B68094A86
:1021340023F001031360074B00229A60FB88002BF5
:10214400C6D100BF00BF1437BD465DF8047B70479D
:10215400B800002010E000E070B50D4D0D4C641B7C
:10216400A4100026A64209D10B4D0C4C00F018F81F
:10217400641BA4100026A64205D170BD55F8043B8B
:1021840098470136EEE755F8043B98470136F2E7E5
:10219400F4210008F4210008F4210008F8210008C3
:1021A400F8B500BFF8BC08BC9E467047F8B500BF40
:0821B400F8BC08BC9E46704710
:1021BC0000000000000000000102030406070809EB
:1021CC0000000000010203040000000001020304EF
:1021DC0002040608020C08100000000000000000B9
:0821EC000102030406070809C3
:0421F400A901000835
:0421F8008501000855
:1021FC001503000851040008790600084907000877
:10220C0000000000000000000000000000000000C2
:10221C000000000000000000D09000000000000052
:10222C0059070008350A0008AD0D0008510E0008CA
:10223C00890E000800127A000014014000140140BD
:10224C000014014000200040008000000500180030
:0C225C000500180005001800010000003B
:0400000508001C854E
:00000001FF
